:100000000C9462000C948A000C948A000C948A0070
:100010000C948A000C948A000C948A000C948A0038
:100020000C948A000C948A000C948A000C948A0028
:100030000C948A000C948A000C948A000C948A0018
:100040000C94F3030C948A000C948A000C948A009C
:100050000C948A000C948A000C948A000C948A00F8
:100060000C948A000C948A000000000024002700F1
:100070002A0000000000250028002B0000000000DE
:1000800023002600290004040404040404040202DA
:100090000202020203030303030301020408102007
:1000A0004080010204081020010204081020000012
:1000B0000008000201000003040700000000000027
:1000C0000000480611241FBECFEFD8E0DEBFCDBF31
:1000D00011E0A0E0B1E0EEE8FDE002C005900D9275
:1000E000A438B107D9F722E0A4E8B1E001C01D921D
:1000F000A931B207E1F710E0C2E6D0E004C02197D1
:10010000FE010E94BF06C136D107C9F70E943D0417
:100110000C94C5060C94000096E0899FD001112430
:10012000AE56BE4F90967C936E935F9791E09196FA
:100130009C939197E091FF01F09100029091FE0154
:10014000992339F0309751F0811108C08091AE01A8
:100150000994309719F05C968C91FACF0895CF925C
:10016000DF92EF92FF920F931F9396E0899FF00129
:100170001124EE56FE4F11A2278D30A121303105FA
:1001800051F178F02230310509F451C023303105A6
:1001900009F452C01F910F91FF90EF90DF90CF9024
:1001A00008956623B9F361E070E00E948C002FB7D8
:1001B000F89480918E0190918F01A0919001B0915F
:1001C00091012FBF8093EA019093EB01A093EC0182
:1001D000B093ED01DFCF9FB7F894C0908E01D0901F
:1001E0008F01E0909001F09091019FBF0091EA0192
:1001F0001091EB012091EC013091ED01C01AD10A70
:10020000E20AF30A0091FC011091FD0130E020E0C8
:100210000C151D052E053F0550F462E070E01F919E
:100220000F91FF90EF90DF90CF900C948C006111B4
:10023000B1CF63E070E0F3CF70E060E0F0CFAF9259
:10024000BF92CF92DF92EF92FF920F931F93CF93C3
:10025000DF936C017B018B01040F151FEB015E0125
:10026000AE18BF08C017D10759F06991D601ED91BA
:10027000FC910190F081E02DC6010995892B79F759
:10028000C501DF91CF911F910F91FF90EF90DF900B
:10029000CF90BF90AF900895833081F028F48130E3
:1002A00099F08230A9F008958730A9F08830C9F01C
:1002B0008430B1F4809180008F7D03C080918000F4
:1002C0008F7780938000089584B58F7784BD0895DB
:1002D00084B58F7DFBCF8091B0008F778093B00085
:1002E00008958091B0008F7DF9CFCF93DF93282FB1
:1002F00030E0F901E255FF4F8491F901E656FF4FD6
:10030000D491F901EA57FF4FC491CC23A1F0811198
:100310000E944C01EC2FF0E0EE0FFF1FE458FF4F5E
:10032000A591B491EC91ED2381E090E009F480E097
:10033000DF91CF91089580E090E0FACF862F0C9462
:1003400075011F93CF93DF93282F30E0F901E25519
:10035000FF4F8491F901E656FF4FD491F901EA5716
:10036000FF4FC491CC23A9F0162F81110E944C019C
:10037000EC2FF0E0EE0FFF1FEE58FF4FA591B49168
:100380008FB7F894EC91111108C0D095DE23DC935F
:100390008FBFDF91CF911F910895DE2BF8CF862F6D
:1003A000642F0C94A101CF93DF9390E0FC01E656FB
:1003B000FF4F24918A579F4FFC0184918823C9F0F5
:1003C00090E0880F991FFC01E859FF4FA591B49167
:1003D000FC01EE58FF4FC591D49161110DC09FB73C
:1003E000F8948C91209582238C93888128232883EC
:1003F0009FBFDF91CF910895623051F49FB7F89479
:100400003C91822F809583238C93E8812E2BEFCF14
:100410008FB7F894EC912E2B2C938FBFEACF862FB9
:10042000642F0C94D3013FB7F8948091850190918B
:100430008601A0918701B091880126B5A89B05C0CF
:100440002F3F19F00196A11DB11D3FBFBA2FA92F53
:10045000982F8827BC01CD01620F711D811D911D50
:1004600042E0660F771F881F991F4A95D1F70895BC
:100470008F929F92AF92BF92CF92DF92EF92FF92B4
:100480004B015C010E9413026B017C010E9413026C
:100490006C197D098E099F09683E7340810591059D
:1004A000A8F321E0821A9108A108B10888EEC80ECD
:1004B00083E0D81EE11CF11C81149104A104B10455
:1004C00029F7FF90EF90DF90CF90BF90AF909F9073
:1004D0008F900895089590E080E00895FC010190C8
:1004E0000020E9F73197AF01481B590BBC0181E0AF
:1004F00092E00C941F01CF93DF93EC0160E08E81BA
:100500000E94A10161E08E810E94A10160E08E81C4
:100510000E94A1018BE891E00197F1F7DF91CF9163
:100520000895CF92DF92EF92FF920F931F93CF9394
:10053000DF936C017C0187E0E80EF11CD0E0C0E0A5
:10054000062F10E0B8010C2E02C0759567950A942D
:10055000E2F76170F70181917F010E94A10121966C
:10056000C430D10579F7C601DF91CF911F910F916A
:10057000FF90EF90DF90CF900C947B02CF92DF92B0
:10058000EF92FF920F931F93CF93DF93EC01F62E20
:10059000642F8C810E94A1018D818F3F19F060E052
:1005A0000E94A1010F2D10E08F8584FF25C06E01F0
:1005B00087E0C80ED11CF12CE12CB8010E2C02C032
:1005C000759567950A94E2F76170F60181916F0164
:1005D0000E94A101FFEFEF1AFF0A88E0E816F1047C
:1005E00061F7CE01DF91CF911F910F91FF90EF90B6
:1005F000DF90CF900C947B02B80184E075956795ED
:100600008A95E1F7CE010E9491026F2DCE01DF9114
:10061000CF911F910F91FF90EF90DF90CF900C94AE
:10062000910240E0682F81E092E00C94BE02CF93EB
:10063000DF93823029F49091100298609093100219
:10064000809314021092150280E48093160280E1D8
:100650008093170280E58093180261E08091050283
:100660000E94D301809106028F3F19F061E00E9441
:10067000D30161E0809107020E94D301C1E0D2E082
:100680009E01215032408091100284FD0BC084E015
:1006900090E021962817390744F461E08E810E948A
:1006A000D301EECF88E090E0F4CF8BE39DE001979B
:1006B000F1F760E0809105020E94A10160E0809165
:1006C00007020E94A101809106028F3F19F060E0AD
:1006D0000E94A1018091100284FD39C063E081E095
:1006E00092E00E949102CBE4D6E4CE010197F1F7AB
:1006F00063E081E092E00E9491022197F1F763E0CC
:1007000081E092E00E94910283E592E00197F1F787
:1007100062E081E092E00E9491028091100280628A
:100720000E94110384E0809311028CE00E94110367
:1007300081E00E9411038BE39FE10197F1F782E0D2
:100740008093120286E0DF91CF910C9411038062B6
:100750000E9411038BE496E40197F1F78091100257
:1007600080620E94110383E592E00197F1F7809186
:10077000100280620E941103D0CFE0911402E23097
:1007800040F4E150F0E0EF5FFD4F848980680C9405
:100790001103E1E0F7CF0E94BD038EE291E00E94D9
:1007A0006E026CED75E080E090E00E9438020E94DD
:1007B000BD038FE391E00E946E020E94BD03109280
:1007C0008D0161E08BE00E94A10160E08AE00E945F
:1007D000A10160E08CE00C94A10141E00E94BE0206
:1007E00081E090E008951F920F920FB60F921124AE
:1007F0002F933F938F939F93AF93BF9380918E01DD
:1008000090918F01A0919001B0919101309184015C
:1008100023E0230F2D3758F50196A11DB11D20931C
:10082000840180938E0190938F01A0939001B093E7
:1008300091018091850190918601A0918701B091ED
:1008400088010196A11DB11D8093850190938601B9
:10085000A0938701B0938801BF91AF919F918F9131
:100860003F912F910F900FBE0F901F90189526E883
:10087000230F0296A11DB11DD2CF789484B582605A
:1008800084BD84B5816084BD85B5826085BD85B534
:10089000816085BD80916E00816080936E001092B2
:1008A000810080918100826080938100809181002D
:1008B00081608093810080918000816080938000BE
:1008C0008091B10084608093B1008091B00081601C
:1008D0008093B00080917A00846080937A00809148
:1008E0007A00826080937A0080917A0081608093A0
:1008F0007A0080917A00806880937A001092C1001B
:1009000061E08AE00E94D30161E08BE00E94D301A4
:1009100061E08CE00E94D30182E00E94170380E531
:1009200091E00E946E020E94BD0380911102982FF7
:100930009260909311028A600E94110361E08BE043
:100940000E94A10160E08AE00E94A10160E08CE0C9
:100950000E94A101412C512C3201439488248A9495
:10096000982C50E0C52E50E0D52E51E05093FE015A
:100970008FB7F89440918E0150918F016091900152
:10098000709191018FBF8091EE019091EF01A09144
:10099000F001B091F101481B590B6A0B7B0B809160
:1009A000FA019091FB01B0E0A0E084179507A6073B
:1009B000B70708F014C1C0E08091F801C81760F4CF
:1009C000E091F401F091F501EC0FF11D62E08081FE
:1009D0000E94D301CF5FF0CF312C8091F9013816FE
:1009E00008F05FC0032D10E0E091F601F091F701EF
:1009F000E00FF11F61E080810E94D301E091F601D8
:100A0000F091F701E00FF11F60E080810E94A101E9
:100A1000D301C201032C04C0880F991FAA1FBB1F5A
:100A20000A94D2F75C017C01E094F094212C80912F
:100A3000F8012816F8F4C22DD0E0E091F401F0910D
:100A4000F501EC0FFD1F80810E9475012496CC0FEB
:100A5000DD1FCE56DE4F892B41F4888199818A298A
:100A60009B29998388832394E2CF888199818E2161
:100A70009F21F7CFE091F601F091F701E00FF11F10
:100A800061E080810E94A1018091F6019091F701BF
:100A9000080F191F60E0F80180810E94D301339490
:100AA0009CCF02E911E0E8018F8D98A1892B21F4F8
:100AB0001C8E9E8E8D8E19A226968EEC91E08C1740
:100AC0009D0791F7B12C8091F801B81608F053C03A
:100AD000A12CEB2CF12CEE0CFF1CF701E656FE4F7F
:100AE0007F012091F901A21608F043C0F70160814F
:100AF00071810A2C02C0769567950A94E2F7B29E3E
:100B0000900111242A0D311DE2E9F1E080E0458DCC
:100B1000568D2417350709F4B9C08F5F36968A3091
:100B2000B1F760FF24C0E2E9F1E090E080E0448D9D
:100B3000411118C0E091F201F091F301E20FF31FAF
:100B4000408156E0589FF001599FF00D1124EE5658
:100B5000FE4F448F368F258F10A2178E61E00E94C2
:100B6000AF0005C0019636968A30910501F7A3942F
:100B7000B8CFB394A8CF80E0F80191A19111892F4B
:100B80000A5F1F4F0C171D07B9F79FB7F8944091E4
:100B90008E0150918F0160919001709191019FBFE2
:100BA0004093EE015093EF016093F0017093F101D7
:100BB0008823A9F08091B301882389F08091B10145
:100BC0009091B201019759F4C091AE01C1110AC0D0
:100BD000C114D10409F4C9CE0E940000C6CE1092FF
:100BE000FE01F6CFD0918D01D430ACF4CD33D1F0ED
:100BF000C33499F041E06AE281E092E00E94BE02D3
:100C0000ED2F0D2E000CFF0BE757FE4FC083DF5F6B
:100C1000D0938D01DDCFC33419F40E94CB03D8CF1C
:100C2000CD33B1F680918901813329F580918A0114
:100C3000823309F580918B018333E9F480918C0133
:100C40008433C9F460E08BE00E94A10161E08AE096
:100C50000E94A10161E08CE00E94A1010E94BD03FD
:100C600081E691E00E946E0260EA7FE080E090E021
:100C70000E943802D2CF0E94BD0382E791E00E9419
:100C80006E026CED75E080E090E0F2CF617067CFAE
:100C9000109204021092030286E291E09093020205
:100CA0008093010289E0809305028FEF8093060212
:100CB00088E08093070287E08093080286E08093B3
:100CC000090285E080930A0284E080930B0210926F
:100CD0000C0210920D0210920E0210920F0210924E
:100CE000100281E00E941703109294011092980163
:100CF00010929701109299018CE191E090939301E9
:100D000080939201EEEAF1E0108214821382158240
:100D1000369681E0EA3EF807B9F784E091E09093D7
:100D2000F5018093F40180E091E09093F7018093C6
:100D3000F60184E08093F8018093F90188E091E066
:100D40009093F3018093F2018AE090E09093FB018D
:100D50008093FA0184EF91E09093FD018093FC0170
:100D6000109200021092FF011092EE011092EF011A
:100D70001092F0011092F1011092FE010895EE0F11
:0E0D8000FF1F0590F491E02D0994F894FFCF29
:100D8E0011100F0E030213123738392F3435362A4D
:100D9E003132332D43303D2B000000000F02CF01C6
:100DAE009E0100000000ED031F016B026A02446FFA
:100DBE006F72204C6F636B65642020202020002012
:100DCE002020202020202020202020202020200035
:100DDE0050617373776F7264204163636573733A06
:100DEE0000446F6F72204F70656E202020202020EF
:100DFE002000496E76616C69642050617373776F61
:040E0E00726400000A
:00000001FF
